{
  "_format": "hh-sol-artifact-1",
  "contractName": "Permit",
  "sourceName": "contracts/Permit.sol",
  "abi": [
    {
      "inputs": [],
      "stateMutability": "nonpayable",
      "type": "constructor"
    },
    {
      "anonymous": false,
      "inputs": [
        {
          "indexed": true,
          "internalType": "address",
          "name": "owner",
          "type": "address"
        },
        {
          "indexed": true,
          "internalType": "address",
          "name": "approved",
          "type": "address"
        },
        {
          "indexed": true,
          "internalType": "uint256",
          "name": "tokenId",
          "type": "uint256"
        }
      ],
      "name": "Approval",
      "type": "event"
    },
    {
      "anonymous": false,
      "inputs": [
        {
          "indexed": true,
          "internalType": "address",
          "name": "owner",
          "type": "address"
        },
        {
          "indexed": true,
          "internalType": "address",
          "name": "operator",
          "type": "address"
        },
        {
          "indexed": false,
          "internalType": "bool",
          "name": "approved",
          "type": "bool"
        }
      ],
      "name": "ApprovalForAll",
      "type": "event"
    },
    {
      "anonymous": false,
      "inputs": [
        {
          "indexed": false,
          "internalType": "uint256",
          "name": "_fromTokenId",
          "type": "uint256"
        },
        {
          "indexed": false,
          "internalType": "uint256",
          "name": "_toTokenId",
          "type": "uint256"
        }
      ],
      "name": "BatchMetadataUpdate",
      "type": "event"
    },
    {
      "anonymous": false,
      "inputs": [
        {
          "indexed": false,
          "internalType": "uint256",
          "name": "_tokenId",
          "type": "uint256"
        }
      ],
      "name": "MetadataUpdate",
      "type": "event"
    },
    {
      "anonymous": false,
      "inputs": [
        {
          "indexed": true,
          "internalType": "address",
          "name": "previousOwner",
          "type": "address"
        },
        {
          "indexed": true,
          "internalType": "address",
          "name": "newOwner",
          "type": "address"
        }
      ],
      "name": "OwnershipTransferred",
      "type": "event"
    },
    {
      "anonymous": false,
      "inputs": [
        {
          "indexed": true,
          "internalType": "address",
          "name": "from",
          "type": "address"
        },
        {
          "indexed": true,
          "internalType": "address",
          "name": "to",
          "type": "address"
        },
        {
          "indexed": true,
          "internalType": "uint256",
          "name": "tokenId",
          "type": "uint256"
        }
      ],
      "name": "Transfer",
      "type": "event"
    },
    {
      "inputs": [
        {
          "internalType": "address",
          "name": "to",
          "type": "address"
        },
        {
          "internalType": "uint256",
          "name": "tokenId",
          "type": "uint256"
        }
      ],
      "name": "approve",
      "outputs": [],
      "stateMutability": "nonpayable",
      "type": "function"
    },
    {
      "inputs": [
        {
          "internalType": "address",
          "name": "owner",
          "type": "address"
        }
      ],
      "name": "balanceOf",
      "outputs": [
        {
          "internalType": "uint256",
          "name": "",
          "type": "uint256"
        }
      ],
      "stateMutability": "view",
      "type": "function"
    },
    {
      "inputs": [
        {
          "internalType": "uint256",
          "name": "tokenId",
          "type": "uint256"
        }
      ],
      "name": "burnPermit",
      "outputs": [],
      "stateMutability": "nonpayable",
      "type": "function"
    },
    {
      "inputs": [
        {
          "internalType": "uint256",
          "name": "tokenId",
          "type": "uint256"
        }
      ],
      "name": "getApproved",
      "outputs": [
        {
          "internalType": "address",
          "name": "",
          "type": "address"
        }
      ],
      "stateMutability": "view",
      "type": "function"
    },
    {
      "inputs": [
        {
          "internalType": "string",
          "name": "hash",
          "type": "string"
        }
      ],
      "name": "getTokenIdByHash",
      "outputs": [
        {
          "internalType": "uint256",
          "name": "",
          "type": "uint256"
        }
      ],
      "stateMutability": "view",
      "type": "function"
    },
    {
      "inputs": [
        {
          "internalType": "address",
          "name": "owner",
          "type": "address"
        },
        {
          "internalType": "address",
          "name": "operator",
          "type": "address"
        }
      ],
      "name": "isApprovedForAll",
      "outputs": [
        {
          "internalType": "bool",
          "name": "",
          "type": "bool"
        }
      ],
      "stateMutability": "view",
      "type": "function"
    },
    {
      "inputs": [
        {
          "internalType": "address",
          "name": "to",
          "type": "address"
        },
        {
          "internalType": "string",
          "name": "uri",
          "type": "string"
        }
      ],
      "name": "mintPermit",
      "outputs": [
        {
          "internalType": "uint256",
          "name": "",
          "type": "uint256"
        }
      ],
      "stateMutability": "nonpayable",
      "type": "function"
    },
    {
      "inputs": [],
      "name": "name",
      "outputs": [
        {
          "internalType": "string",
          "name": "",
          "type": "string"
        }
      ],
      "stateMutability": "view",
      "type": "function"
    },
    {
      "inputs": [],
      "name": "owner",
      "outputs": [
        {
          "internalType": "address",
          "name": "",
          "type": "address"
        }
      ],
      "stateMutability": "view",
      "type": "function"
    },
    {
      "inputs": [
        {
          "internalType": "uint256",
          "name": "tokenId",
          "type": "uint256"
        }
      ],
      "name": "ownerOf",
      "outputs": [
        {
          "internalType": "address",
          "name": "",
          "type": "address"
        }
      ],
      "stateMutability": "view",
      "type": "function"
    },
    {
      "inputs": [
        {
          "internalType": "address",
          "name": "owner",
          "type": "address"
        }
      ],
      "name": "permitsOf",
      "outputs": [
        {
          "internalType": "uint256[]",
          "name": "",
          "type": "uint256[]"
        }
      ],
      "stateMutability": "view",
      "type": "function"
    },
    {
      "inputs": [],
      "name": "renounceOwnership",
      "outputs": [],
      "stateMutability": "nonpayable",
      "type": "function"
    },
    {
      "inputs": [
        {
          "internalType": "address",
          "name": "from",
          "type": "address"
        },
        {
          "internalType": "address",
          "name": "to",
          "type": "address"
        },
        {
          "internalType": "uint256",
          "name": "tokenId",
          "type": "uint256"
        }
      ],
      "name": "safeTransferFrom",
      "outputs": [],
      "stateMutability": "nonpayable",
      "type": "function"
    },
    {
      "inputs": [
        {
          "internalType": "address",
          "name": "from",
          "type": "address"
        },
        {
          "internalType": "address",
          "name": "to",
          "type": "address"
        },
        {
          "internalType": "uint256",
          "name": "tokenId",
          "type": "uint256"
        },
        {
          "internalType": "bytes",
          "name": "data",
          "type": "bytes"
        }
      ],
      "name": "safeTransferFrom",
      "outputs": [],
      "stateMutability": "nonpayable",
      "type": "function"
    },
    {
      "inputs": [
        {
          "internalType": "address",
          "name": "operator",
          "type": "address"
        },
        {
          "internalType": "bool",
          "name": "approved",
          "type": "bool"
        }
      ],
      "name": "setApprovalForAll",
      "outputs": [],
      "stateMutability": "nonpayable",
      "type": "function"
    },
    {
      "inputs": [
        {
          "internalType": "bytes4",
          "name": "interfaceId",
          "type": "bytes4"
        }
      ],
      "name": "supportsInterface",
      "outputs": [
        {
          "internalType": "bool",
          "name": "",
          "type": "bool"
        }
      ],
      "stateMutability": "view",
      "type": "function"
    },
    {
      "inputs": [],
      "name": "symbol",
      "outputs": [
        {
          "internalType": "string",
          "name": "",
          "type": "string"
        }
      ],
      "stateMutability": "view",
      "type": "function"
    },
    {
      "inputs": [
        {
          "internalType": "uint256",
          "name": "tokenId",
          "type": "uint256"
        }
      ],
      "name": "tokenURI",
      "outputs": [
        {
          "internalType": "string",
          "name": "",
          "type": "string"
        }
      ],
      "stateMutability": "view",
      "type": "function"
    },
    {
      "inputs": [],
      "name": "totalMinted",
      "outputs": [
        {
          "internalType": "uint256",
          "name": "",
          "type": "uint256"
        }
      ],
      "stateMutability": "view",
      "type": "function"
    },
    {
      "inputs": [
        {
          "internalType": "address",
          "name": "from",
          "type": "address"
        },
        {
          "internalType": "address",
          "name": "to",
          "type": "address"
        },
        {
          "internalType": "uint256",
          "name": "tokenId",
          "type": "uint256"
        }
      ],
      "name": "transferFrom",
      "outputs": [],
      "stateMutability": "nonpayable",
      "type": "function"
    },
    {
      "inputs": [
        {
          "internalType": "address",
          "name": "newOwner",
          "type": "address"
        }
      ],
      "name": "transferOwnership",
      "outputs": [],
      "stateMutability": "nonpayable",
      "type": "function"
    }
  ],
  "bytecode": "0x608060405234801561001057600080fd5b506040518060400160405280600f81526020017f476f76436861696e205065726d697400000000000000000000000000000000008152506040518060400160405280600381526020017f4743500000000000000000000000000000000000000000000000000000000000815250816000908161008c91906103de565b50806001908161009c91906103de565b5050506100bb6100b06100c060201b60201c565b6100c860201b60201c565b6104b0565b600033905090565b6000600760009054906101000a900473ffffffffffffffffffffffffffffffffffffffff16905081600760006101000a81548173ffffffffffffffffffffffffffffffffffffffff021916908373ffffffffffffffffffffffffffffffffffffffff1602179055508173ffffffffffffffffffffffffffffffffffffffff168173ffffffffffffffffffffffffffffffffffffffff167f8be0079c531659141344cd1fd0a4f28419497f9722a3daafe3b4186f6b6457e060405160405180910390a35050565b600081519050919050565b7f4e487b7100000000000000000000000000000000000000000000000000000000600052604160045260246000fd5b7f4e487b7100000000000000000000000000000000000000000000000000000000600052602260045260246000fd5b6000600282049050600182168061020f57607f821691505b602082108103610222576102216101c8565b5b50919050565b60008190508160005260206000209050919050565b60006020601f8301049050919050565b600082821b905092915050565b60006008830261028a7fffffffffffffffffffffffffffffffffffffffffffffffffffffffffffffffff8261024d565b610294868361024d565b95508019841693508086168417925050509392505050565b6000819050919050565b6000819050919050565b60006102db6102d66102d1846102ac565b6102b6565b6102ac565b9050919050565b6000819050919050565b6102f5836102c0565b610309610301826102e2565b84845461025a565b825550505050565b600090565b61031e610311565b6103298184846102ec565b505050565b5b8181101561034d57610342600082610316565b60018101905061032f565b5050565b601f8211156103925761036381610228565b61036c8461023d565b8101602085101561037b578190505b61038f6103878561023d565b83018261032e565b50505b505050565b600082821c905092915050565b60006103b560001984600802610397565b1980831691505092915050565b60006103ce83836103a4565b9150826002028217905092915050565b6103e78261018e565b67ffffffffffffffff811115610400576103ff610199565b5b61040a82546101f7565b610415828285610351565b600060209050601f8311600181146104485760008415610436578287015190505b61044085826103c2565b8655506104a8565b601f19841661045686610228565b60005b8281101561047e57848901518255600182019150602085019450602081019050610459565b8683101561049b5784890151610497601f8916826103a4565b8355505b6001600288020188555050505b505050505050565b6137e5806104bf6000396000f3fe608060405234801561001057600080fd5b50600436106101375760003560e01c8063715018a6116100b8578063b88d4fde1161007c578063b88d4fde1461034e578063c87b56dd1461036a578063cf4ae3ae1461039a578063d863042c146103b6578063e985e9c5146103e6578063f2fde38b1461041657610137565b8063715018a6146102ce5780638da5cb5b146102d857806395d89b41146102f6578063a22cb46514610314578063a2309ff81461033057610137565b806323b872dd116100ff57806323b872dd1461020657806342842e0e146102225780635e22a2fb1461023e5780636352211e1461026e57806370a082311461029e57610137565b806301ffc9a71461013c57806306fdde031461016c578063081812fc1461018a578063095ea7b3146101ba5780630da610d8146101d6575b600080fd5b610156600480360381019061015191906122ac565b610432565b60405161016391906122f4565b60405180910390f35b610174610444565b604051610181919061239f565b60405180910390f35b6101a4600480360381019061019f91906123f7565b6104d6565b6040516101b19190612465565b60405180910390f35b6101d460048036038101906101cf91906124ac565b61051c565b005b6101f060048036038101906101eb91906124ec565b610633565b6040516101fd91906125d7565b60405180910390f35b610220600480360381019061021b91906125f9565b6107d9565b005b61023c600480360381019061023791906125f9565b610839565b005b61025860048036038101906102539190612781565b610859565b60405161026591906127d9565b60405180910390f35b610288600480360381019061028391906123f7565b6108e1565b6040516102959190612465565b60405180910390f35b6102b860048036038101906102b391906124ec565b610967565b6040516102c591906127d9565b60405180910390f35b6102d6610a1e565b005b6102e0610a32565b6040516102ed9190612465565b60405180910390f35b6102fe610a5c565b60405161030b919061239f565b60405180910390f35b61032e60048036038101906103299190612820565b610aee565b005b610338610b04565b60405161034591906127d9565b60405180910390f35b61036860048036038101906103639190612901565b610b15565b005b610384600480360381019061037f91906123f7565b610b77565b604051610391919061239f565b60405180910390f35b6103b460048036038101906103af91906123f7565b610b89565b005b6103d060048036038101906103cb9190612984565b610c2d565b6040516103dd91906127d9565b60405180910390f35b61040060048036038101906103fb91906129e0565b610c88565b60405161040d91906122f4565b60405180910390f35b610430600480360381019061042b91906124ec565b610d1c565b005b600061043d82610d9f565b9050919050565b60606000805461045390612a4f565b80601f016020809104026020016040519081016040528092919081815260200182805461047f90612a4f565b80156104cc5780601f106104a1576101008083540402835291602001916104cc565b820191906000526020600020905b8154815290600101906020018083116104af57829003601f168201915b5050505050905090565b60006104e182610e00565b6004600083815260200190815260200160002060009054906101000a900473ffffffffffffffffffffffffffffffffffffffff169050919050565b6000610527826108e1565b90508073ffffffffffffffffffffffffffffffffffffffff168373ffffffffffffffffffffffffffffffffffffffff1603610597576040517f08c379a000000000000000000000000000000000000000000000000000000000815260040161058e90612af2565b60405180910390fd5b8073ffffffffffffffffffffffffffffffffffffffff166105b6610e4b565b73ffffffffffffffffffffffffffffffffffffffff1614806105e557506105e4816105df610e4b565b610c88565b5b610624576040517f08c379a000000000000000000000000000000000000000000000000000000000815260040161061b90612b84565b60405180910390fd5b61062e8383610e53565b505050565b6060600061063f610b04565b905060008167ffffffffffffffff81111561065d5761065c612656565b5b60405190808252806020026020018201604052801561068b5781602001602082028036833780820191505090505b509050600080600190505b83811161072c576106a681610f0c565b80156106e557508573ffffffffffffffffffffffffffffffffffffffff166106cd826108e1565b73ffffffffffffffffffffffffffffffffffffffff16145b1561071957808383815181106106fe576106fd612ba4565b5b602002602001018181525050818061071590612c02565b9250505b808061072490612c02565b915050610696565b5060008167ffffffffffffffff81111561074957610748612656565b5b6040519080825280602002602001820160405280156107775781602001602082028036833780820191505090505b50905060005b828110156107cc5783818151811061079857610797612ba4565b5b60200260200101518282815181106107b3576107b2612ba4565b5b602002602001018181525050808060010191505061077d565b5080945050505050919050565b6107ea6107e4610e4b565b82610f4d565b610829576040517f08c379a000000000000000000000000000000000000000000000000000000000815260040161082090612cbc565b60405180910390fd5b610834838383610fe2565b505050565b61085483838360405180602001604052806000815250610b15565b505050565b60008060098360405161086c9190612d18565b908152602001604051809103902054036108bb576040517f08c379a00000000000000000000000000000000000000000000000000000000081526004016108b290612d7b565b60405180910390fd5b6009826040516108cb9190612d18565b9081526020016040518091039020549050919050565b6000806108ed836112db565b9050600073ffffffffffffffffffffffffffffffffffffffff168173ffffffffffffffffffffffffffffffffffffffff160361095e576040517f08c379a000000000000000000000000000000000000000000000000000000000815260040161095590612de7565b60405180910390fd5b80915050919050565b60008073ffffffffffffffffffffffffffffffffffffffff168273ffffffffffffffffffffffffffffffffffffffff16036109d7576040517f08c379a00000000000000000000000000000000000000000000000000000000081526004016109ce90612e79565b60405180910390fd5b600360008373ffffffffffffffffffffffffffffffffffffffff1673ffffffffffffffffffffffffffffffffffffffff168152602001908152602001600020549050919050565b610a26611318565b610a306000611396565b565b6000600760009054906101000a900473ffffffffffffffffffffffffffffffffffffffff16905090565b606060018054610a6b90612a4f565b80601f0160208091040260200160405190810160405280929190818152602001828054610a9790612a4f565b8015610ae45780601f10610ab957610100808354040283529160200191610ae4565b820191906000526020600020905b815481529060010190602001808311610ac757829003601f168201915b5050505050905090565b610b00610af9610e4b565b838361145c565b5050565b6000610b1060086115c8565b905090565b610b26610b20610e4b565b83610f4d565b610b65576040517f08c379a0000000000000000000000000000000000000000000000000000000008152600401610b5c90612cbc565b60405180910390fd5b610b71848484846115d6565b50505050565b6060610b8282611632565b9050919050565b610b9281610f0c565b610bd1576040517f08c379a0000000000000000000000000000000000000000000000000000000008152600401610bc890612ee5565b60405180910390fd5b610be2610bdc610e4b565b82610f4d565b610c21576040517f08c379a0000000000000000000000000000000000000000000000000000000008152600401610c1890612f51565b60405180910390fd5b610c2a81611744565b50565b6000610c396008611750565b6000610c4560086115c8565b9050610c518482611766565b610c5b8184611784565b80600984604051610c6c9190612d18565b9081526020016040518091039020819055508091505092915050565b6000600560008473ffffffffffffffffffffffffffffffffffffffff1673ffffffffffffffffffffffffffffffffffffffff16815260200190815260200160002060008373ffffffffffffffffffffffffffffffffffffffff1673ffffffffffffffffffffffffffffffffffffffff16815260200190815260200160002060009054906101000a900460ff16905092915050565b610d24611318565b600073ffffffffffffffffffffffffffffffffffffffff168173ffffffffffffffffffffffffffffffffffffffff1603610d93576040517f08c379a0000000000000000000000000000000000000000000000000000000008152600401610d8a90612fe3565b60405180910390fd5b610d9c81611396565b50565b6000634906490660e01b7bffffffffffffffffffffffffffffffffffffffffffffffffffffffff1916827bffffffffffffffffffffffffffffffffffffffffffffffffffffffff19161480610df95750610df882611828565b5b9050919050565b610e0981610f0c565b610e48576040517f08c379a0000000000000000000000000000000000000000000000000000000008152600401610e3f90612de7565b60405180910390fd5b50565b600033905090565b816004600083815260200190815260200160002060006101000a81548173ffffffffffffffffffffffffffffffffffffffff021916908373ffffffffffffffffffffffffffffffffffffffff160217905550808273ffffffffffffffffffffffffffffffffffffffff16610ec6836108e1565b73ffffffffffffffffffffffffffffffffffffffff167f8c5be1e5ebec7d5bd14f71427d1e84f3dd0314c0f7b2291e5b200ac8c7c3b92560405160405180910390a45050565b60008073ffffffffffffffffffffffffffffffffffffffff16610f2e836112db565b73ffffffffffffffffffffffffffffffffffffffff1614159050919050565b600080610f59836108e1565b90508073ffffffffffffffffffffffffffffffffffffffff168473ffffffffffffffffffffffffffffffffffffffff161480610f9b5750610f9a8185610c88565b5b80610fd957508373ffffffffffffffffffffffffffffffffffffffff16610fc1846104d6565b73ffffffffffffffffffffffffffffffffffffffff16145b91505092915050565b8273ffffffffffffffffffffffffffffffffffffffff16611002826108e1565b73ffffffffffffffffffffffffffffffffffffffff1614611058576040517f08c379a000000000000000000000000000000000000000000000000000000000815260040161104f90613075565b60405180910390fd5b600073ffffffffffffffffffffffffffffffffffffffff168273ffffffffffffffffffffffffffffffffffffffff16036110c7576040517f08c379a00000000000000000000000000000000000000000000000000000000081526004016110be90613107565b60405180910390fd5b6110d4838383600161190a565b8273ffffffffffffffffffffffffffffffffffffffff166110f4826108e1565b73ffffffffffffffffffffffffffffffffffffffff161461114a576040517f08c379a000000000000000000000000000000000000000000000000000000000815260040161114190613075565b60405180910390fd5b6004600082815260200190815260200160002060006101000a81549073ffffffffffffffffffffffffffffffffffffffff02191690556001600360008573ffffffffffffffffffffffffffffffffffffffff1673ffffffffffffffffffffffffffffffffffffffff168152602001908152602001600020600082825403925050819055506001600360008473ffffffffffffffffffffffffffffffffffffffff1673ffffffffffffffffffffffffffffffffffffffff16815260200190815260200160002060008282540192505081905550816002600083815260200190815260200160002060006101000a81548173ffffffffffffffffffffffffffffffffffffffff021916908373ffffffffffffffffffffffffffffffffffffffff160217905550808273ffffffffffffffffffffffffffffffffffffffff168473ffffffffffffffffffffffffffffffffffffffff167fddf252ad1be2c89b69c2b068fc378daa952ba7f163c4a11628f55a4df523b3ef60405160405180910390a46112d68383836001611910565b505050565b60006002600083815260200190815260200160002060009054906101000a900473ffffffffffffffffffffffffffffffffffffffff169050919050565b611320610e4b565b73ffffffffffffffffffffffffffffffffffffffff1661133e610a32565b73ffffffffffffffffffffffffffffffffffffffff1614611394576040517f08c379a000000000000000000000000000000000000000000000000000000000815260040161138b90613173565b60405180910390fd5b565b6000600760009054906101000a900473ffffffffffffffffffffffffffffffffffffffff16905081600760006101000a81548173ffffffffffffffffffffffffffffffffffffffff021916908373ffffffffffffffffffffffffffffffffffffffff1602179055508173ffffffffffffffffffffffffffffffffffffffff168173ffffffffffffffffffffffffffffffffffffffff167f8be0079c531659141344cd1fd0a4f28419497f9722a3daafe3b4186f6b6457e060405160405180910390a35050565b8173ffffffffffffffffffffffffffffffffffffffff168373ffffffffffffffffffffffffffffffffffffffff16036114ca576040517f08c379a00000000000000000000000000000000000000000000000000000000081526004016114c1906131df565b60405180910390fd5b80600560008573ffffffffffffffffffffffffffffffffffffffff1673ffffffffffffffffffffffffffffffffffffffff16815260200190815260200160002060008473ffffffffffffffffffffffffffffffffffffffff1673ffffffffffffffffffffffffffffffffffffffff16815260200190815260200160002060006101000a81548160ff0219169083151502179055508173ffffffffffffffffffffffffffffffffffffffff168373ffffffffffffffffffffffffffffffffffffffff167f17307eab39ab6107e8899845ad3d59bd9653f200f220920489ca2b5937696c31836040516115bb91906122f4565b60405180910390a3505050565b600081600001549050919050565b6115e1848484610fe2565b6115ed84848484611916565b61162c576040517f08c379a000000000000000000000000000000000000000000000000000000000815260040161162390613271565b60405180910390fd5b50505050565b606061163d82610e00565b600060066000848152602001908152602001600020805461165d90612a4f565b80601f016020809104026020016040519081016040528092919081815260200182805461168990612a4f565b80156116d65780601f106116ab576101008083540402835291602001916116d6565b820191906000526020600020905b8154815290600101906020018083116116b957829003601f168201915b5050505050905060006116e7611a9d565b905060008151036116fc57819250505061173f565b600082511115611731578082604051602001611719929190613291565b6040516020818303038152906040529250505061173f565b61173a84611ab4565b925050505b919050565b61174d81611b1c565b50565b6001816000016000828254019250508190555050565b611780828260405180602001604052806000815250611b6f565b5050565b61178d82610f0c565b6117cc576040517f08c379a00000000000000000000000000000000000000000000000000000000081526004016117c390613327565b60405180910390fd5b806006600084815260200190815260200160002090816117ec91906134f3565b507ff8e1a15aba9398e019f0b49df1a4fde98ee17ae345cb5f6b5e2c27f5033e8ce78260405161181c91906127d9565b60405180910390a15050565b60007f80ac58cd000000000000000000000000000000000000000000000000000000007bffffffffffffffffffffffffffffffffffffffffffffffffffffffff1916827bffffffffffffffffffffffffffffffffffffffffffffffffffffffff191614806118f357507f5b5e139f000000000000000000000000000000000000000000000000000000007bffffffffffffffffffffffffffffffffffffffffffffffffffffffff1916827bffffffffffffffffffffffffffffffffffffffffffffffffffffffff1916145b80611903575061190282611bca565b5b9050919050565b50505050565b50505050565b60006119378473ffffffffffffffffffffffffffffffffffffffff16611c34565b15611a90578373ffffffffffffffffffffffffffffffffffffffff1663150b7a02611960610e4b565b8786866040518563ffffffff1660e01b8152600401611982949392919061361a565b6020604051808303816000875af19250505080156119be57506040513d601f19601f820116820180604052508101906119bb919061367b565b60015b611a40573d80600081146119ee576040519150601f19603f3d011682016040523d82523d6000602084013e6119f3565b606091505b506000815103611a38576040517f08c379a0000000000000000000000000000000000000000000000000000000008152600401611a2f90613271565b60405180910390fd5b805181602001fd5b63150b7a0260e01b7bffffffffffffffffffffffffffffffffffffffffffffffffffffffff1916817bffffffffffffffffffffffffffffffffffffffffffffffffffffffff191614915050611a95565b600190505b949350505050565b606060405180602001604052806000815250905090565b6060611abf82610e00565b6000611ac9611a9d565b90506000815111611ae95760405180602001604052806000815250611b14565b80611af384611c57565b604051602001611b04929190613291565b6040516020818303038152906040525b915050919050565b611b2581611d25565b6000600660008381526020019081526020016000208054611b4590612a4f565b905014611b6c57600660008281526020019081526020016000206000611b6b91906121e3565b5b50565b611b798383611e73565b611b866000848484611916565b611bc5576040517f08c379a0000000000000000000000000000000000000000000000000000000008152600401611bbc90613271565b60405180910390fd5b505050565b60007f01ffc9a7000000000000000000000000000000000000000000000000000000007bffffffffffffffffffffffffffffffffffffffffffffffffffffffff1916827bffffffffffffffffffffffffffffffffffffffffffffffffffffffff1916149050919050565b6000808273ffffffffffffffffffffffffffffffffffffffff163b119050919050565b606060006001611c6684612090565b01905060008167ffffffffffffffff811115611c8557611c84612656565b5b6040519080825280601f01601f191660200182016040528015611cb75781602001600182028036833780820191505090505b509050600082602001820190505b600115611d1a578080600190039150507f3031323334353637383961626364656600000000000000000000000000000000600a86061a8153600a8581611d0e57611d0d6136a8565b5b04945060008503611cc5575b819350505050919050565b6000611d30826108e1565b9050611d4081600084600161190a565b611d49826108e1565b90506004600083815260200190815260200160002060006101000a81549073ffffffffffffffffffffffffffffffffffffffff02191690556001600360008373ffffffffffffffffffffffffffffffffffffffff1673ffffffffffffffffffffffffffffffffffffffff168152602001908152602001600020600082825403925050819055506002600083815260200190815260200160002060006101000a81549073ffffffffffffffffffffffffffffffffffffffff021916905581600073ffffffffffffffffffffffffffffffffffffffff168273ffffffffffffffffffffffffffffffffffffffff167fddf252ad1be2c89b69c2b068fc378daa952ba7f163c4a11628f55a4df523b3ef60405160405180910390a4611e6f816000846001611910565b5050565b600073ffffffffffffffffffffffffffffffffffffffff168273ffffffffffffffffffffffffffffffffffffffff1603611ee2576040517f08c379a0000000000000000000000000000000000000000000000000000000008152600401611ed990613723565b60405180910390fd5b611eeb81610f0c565b15611f2b576040517f08c379a0000000000000000000000000000000000000000000000000000000008152600401611f229061378f565b60405180910390fd5b611f3960008383600161190a565b611f4281610f0c565b15611f82576040517f08c379a0000000000000000000000000000000000000000000000000000000008152600401611f799061378f565b60405180910390fd5b6001600360008473ffffffffffffffffffffffffffffffffffffffff1673ffffffffffffffffffffffffffffffffffffffff16815260200190815260200160002060008282540192505081905550816002600083815260200190815260200160002060006101000a81548173ffffffffffffffffffffffffffffffffffffffff021916908373ffffffffffffffffffffffffffffffffffffffff160217905550808273ffffffffffffffffffffffffffffffffffffffff16600073ffffffffffffffffffffffffffffffffffffffff167fddf252ad1be2c89b69c2b068fc378daa952ba7f163c4a11628f55a4df523b3ef60405160405180910390a461208c600083836001611910565b5050565b600080600090507a184f03e93ff9f4daa797ed6e38ed64bf6a1f01000000000000000083106120ee577a184f03e93ff9f4daa797ed6e38ed64bf6a1f01000000000000000083816120e4576120e36136a8565b5b0492506040810190505b6d04ee2d6d415b85acef8100000000831061212b576d04ee2d6d415b85acef81000000008381612121576121206136a8565b5b0492506020810190505b662386f26fc10000831061215a57662386f26fc1000083816121505761214f6136a8565b5b0492506010810190505b6305f5e1008310612183576305f5e1008381612179576121786136a8565b5b0492506008810190505b61271083106121a857612710838161219e5761219d6136a8565b5b0492506004810190505b606483106121cb57606483816121c1576121c06136a8565b5b0492506002810190505b600a83106121da576001810190505b80915050919050565b5080546121ef90612a4f565b6000825580601f106122015750612220565b601f01602090049060005260206000209081019061221f9190612223565b5b50565b5b8082111561223c576000816000905550600101612224565b5090565b6000604051905090565b600080fd5b600080fd5b60007fffffffff0000000000000000000000000000000000000000000000000000000082169050919050565b61228981612254565b811461229457600080fd5b50565b6000813590506122a681612280565b92915050565b6000602082840312156122c2576122c161224a565b5b60006122d084828501612297565b91505092915050565b60008115159050919050565b6122ee816122d9565b82525050565b600060208201905061230960008301846122e5565b92915050565b600081519050919050565b600082825260208201905092915050565b60005b8381101561234957808201518184015260208101905061232e565b60008484015250505050565b6000601f19601f8301169050919050565b60006123718261230f565b61237b818561231a565b935061238b81856020860161232b565b61239481612355565b840191505092915050565b600060208201905081810360008301526123b98184612366565b905092915050565b6000819050919050565b6123d4816123c1565b81146123df57600080fd5b50565b6000813590506123f1816123cb565b92915050565b60006020828403121561240d5761240c61224a565b5b600061241b848285016123e2565b91505092915050565b600073ffffffffffffffffffffffffffffffffffffffff82169050919050565b600061244f82612424565b9050919050565b61245f81612444565b82525050565b600060208201905061247a6000830184612456565b92915050565b61248981612444565b811461249457600080fd5b50565b6000813590506124a681612480565b92915050565b600080604083850312156124c3576124c261224a565b5b60006124d185828601612497565b92505060206124e2858286016123e2565b9150509250929050565b6000602082840312156125025761250161224a565b5b600061251084828501612497565b91505092915050565b600081519050919050565b600082825260208201905092915050565b6000819050602082019050919050565b61254e816123c1565b82525050565b60006125608383612545565b60208301905092915050565b6000602082019050919050565b600061258482612519565b61258e8185612524565b935061259983612535565b8060005b838110156125ca5781516125b18882612554565b97506125bc8361256c565b92505060018101905061259d565b5085935050505092915050565b600060208201905081810360008301526125f18184612579565b905092915050565b6000806000606084860312156126125761261161224a565b5b600061262086828701612497565b935050602061263186828701612497565b9250506040612642868287016123e2565b9150509250925092565b600080fd5b600080fd5b7f4e487b7100000000000000000000000000000000000000000000000000000000600052604160045260246000fd5b61268e82612355565b810181811067ffffffffffffffff821117156126ad576126ac612656565b5b80604052505050565b60006126c0612240565b90506126cc8282612685565b919050565b600067ffffffffffffffff8211156126ec576126eb612656565b5b6126f582612355565b9050602081019050919050565b82818337600083830152505050565b600061272461271f846126d1565b6126b6565b9050828152602081018484840111156127405761273f612651565b5b61274b848285612702565b509392505050565b600082601f8301126127685761276761264c565b5b8135612778848260208601612711565b91505092915050565b6000602082840312156127975761279661224a565b5b600082013567ffffffffffffffff8111156127b5576127b461224f565b5b6127c184828501612753565b91505092915050565b6127d3816123c1565b82525050565b60006020820190506127ee60008301846127ca565b92915050565b6127fd816122d9565b811461280857600080fd5b50565b60008135905061281a816127f4565b92915050565b600080604083850312156128375761283661224a565b5b600061284585828601612497565b92505060206128568582860161280b565b9150509250929050565b600067ffffffffffffffff82111561287b5761287a612656565b5b61288482612355565b9050602081019050919050565b60006128a461289f84612860565b6126b6565b9050828152602081018484840111156128c0576128bf612651565b5b6128cb848285612702565b509392505050565b600082601f8301126128e8576128e761264c565b5b81356128f8848260208601612891565b91505092915050565b6000806000806080858703121561291b5761291a61224a565b5b600061292987828801612497565b945050602061293a87828801612497565b935050604061294b878288016123e2565b925050606085013567ffffffffffffffff81111561296c5761296b61224f565b5b612978878288016128d3565b91505092959194509250565b6000806040838503121561299b5761299a61224a565b5b60006129a985828601612497565b925050602083013567ffffffffffffffff8111156129ca576129c961224f565b5b6129d685828601612753565b9150509250929050565b600080604083850312156129f7576129f661224a565b5b6000612a0585828601612497565b9250506020612a1685828601612497565b9150509250929050565b7f4e487b7100000000000000000000000000000000000000000000000000000000600052602260045260246000fd5b60006002820490506001821680612a6757607f821691505b602082108103612a7a57612a79612a20565b5b50919050565b7f4552433732313a20617070726f76616c20746f2063757272656e74206f776e6560008201527f7200000000000000000000000000000000000000000000000000000000000000602082015250565b6000612adc60218361231a565b9150612ae782612a80565b604082019050919050565b60006020820190508181036000830152612b0b81612acf565b9050919050565b7f4552433732313a20617070726f76652063616c6c6572206973206e6f7420746f60008201527f6b656e206f776e6572206f7220617070726f76656420666f7220616c6c000000602082015250565b6000612b6e603d8361231a565b9150612b7982612b12565b604082019050919050565b60006020820190508181036000830152612b9d81612b61565b9050919050565b7f4e487b7100000000000000000000000000000000000000000000000000000000600052603260045260246000fd5b7f4e487b7100000000000000000000000000000000000000000000000000000000600052601160045260246000fd5b6000612c0d826123c1565b91507fffffffffffffffffffffffffffffffffffffffffffffffffffffffffffffffff8203612c3f57612c3e612bd3565b5b600182019050919050565b7f4552433732313a2063616c6c6572206973206e6f7420746f6b656e206f776e6560008201527f72206f7220617070726f76656400000000000000000000000000000000000000602082015250565b6000612ca6602d8361231a565b9150612cb182612c4a565b604082019050919050565b60006020820190508181036000830152612cd581612c99565b9050919050565b600081905092915050565b6000612cf28261230f565b612cfc8185612cdc565b9350612d0c81856020860161232b565b80840191505092915050565b6000612d248284612ce7565b915081905092915050565b7f48617368206e6f7420666f756e64000000000000000000000000000000000000600082015250565b6000612d65600e8361231a565b9150612d7082612d2f565b602082019050919050565b60006020820190508181036000830152612d9481612d58565b9050919050565b7f4552433732313a20696e76616c696420746f6b656e2049440000000000000000600082015250565b6000612dd160188361231a565b9150612ddc82612d9b565b602082019050919050565b60006020820190508181036000830152612e0081612dc4565b9050919050565b7f4552433732313a2061646472657373207a65726f206973206e6f74206120766160008201527f6c6964206f776e65720000000000000000000000000000000000000000000000602082015250565b6000612e6360298361231a565b9150612e6e82612e07565b604082019050919050565b60006020820190508181036000830152612e9281612e56565b9050919050565b7f546f6b656e20746964616b20646974656d756b616e0000000000000000000000600082015250565b6000612ecf60158361231a565b9150612eda82612e99565b602082019050919050565b60006020820190508181036000830152612efe81612ec2565b9050919050565b7f42756b616e2070656d696c696b2061746175206469736574756a756900000000600082015250565b6000612f3b601c8361231a565b9150612f4682612f05565b602082019050919050565b60006020820190508181036000830152612f6a81612f2e565b9050919050565b7f4f776e61626c653a206e6577206f776e657220697320746865207a65726f206160008201527f6464726573730000000000000000000000000000000000000000000000000000602082015250565b6000612fcd60268361231a565b9150612fd882612f71565b604082019050919050565b60006020820190508181036000830152612ffc81612fc0565b9050919050565b7f4552433732313a207472616e736665722066726f6d20696e636f72726563742060008201527f6f776e6572000000000000000000000000000000000000000000000000000000602082015250565b600061305f60258361231a565b915061306a82613003565b604082019050919050565b6000602082019050818103600083015261308e81613052565b9050919050565b7f4552433732313a207472616e7366657220746f20746865207a65726f2061646460008201527f7265737300000000000000000000000000000000000000000000000000000000602082015250565b60006130f160248361231a565b91506130fc82613095565b604082019050919050565b60006020820190508181036000830152613120816130e4565b9050919050565b7f4f776e61626c653a2063616c6c6572206973206e6f7420746865206f776e6572600082015250565b600061315d60208361231a565b915061316882613127565b602082019050919050565b6000602082019050818103600083015261318c81613150565b9050919050565b7f4552433732313a20617070726f766520746f2063616c6c657200000000000000600082015250565b60006131c960198361231a565b91506131d482613193565b602082019050919050565b600060208201905081810360008301526131f8816131bc565b9050919050565b7f4552433732313a207472616e7366657220746f206e6f6e20455243373231526560008201527f63656976657220696d706c656d656e7465720000000000000000000000000000602082015250565b600061325b60328361231a565b9150613266826131ff565b604082019050919050565b6000602082019050818103600083015261328a8161324e565b9050919050565b600061329d8285612ce7565b91506132a98284612ce7565b91508190509392505050565b7f45524337323155524953746f726167653a2055524920736574206f66206e6f6e60008201527f6578697374656e7420746f6b656e000000000000000000000000000000000000602082015250565b6000613311602e8361231a565b915061331c826132b5565b604082019050919050565b6000602082019050818103600083015261334081613304565b9050919050565b60008190508160005260206000209050919050565b60006020601f8301049050919050565b600082821b905092915050565b6000600883026133a97fffffffffffffffffffffffffffffffffffffffffffffffffffffffffffffffff8261336c565b6133b3868361336c565b95508019841693508086168417925050509392505050565b6000819050919050565b60006133f06133eb6133e6846123c1565b6133cb565b6123c1565b9050919050565b6000819050919050565b61340a836133d5565b61341e613416826133f7565b848454613379565b825550505050565b600090565b613433613426565b61343e818484613401565b505050565b5b818110156134625761345760008261342b565b600181019050613444565b5050565b601f8211156134a75761347881613347565b6134818461335c565b81016020851015613490578190505b6134a461349c8561335c565b830182613443565b50505b505050565b600082821c905092915050565b60006134ca600019846008026134ac565b1980831691505092915050565b60006134e383836134b9565b9150826002028217905092915050565b6134fc8261230f565b67ffffffffffffffff81111561351557613514612656565b5b61351f8254612a4f565b61352a828285613466565b600060209050601f83116001811461355d576000841561354b578287015190505b61355585826134d7565b8655506135bd565b601f19841661356b86613347565b60005b828110156135935784890151825560018201915060208501945060208101905061356e565b868310156135b057848901516135ac601f8916826134b9565b8355505b6001600288020188555050505b505050505050565b600081519050919050565b600082825260208201905092915050565b60006135ec826135c5565b6135f681856135d0565b935061360681856020860161232b565b61360f81612355565b840191505092915050565b600060808201905061362f6000830187612456565b61363c6020830186612456565b61364960408301856127ca565b818103606083015261365b81846135e1565b905095945050505050565b60008151905061367581612280565b92915050565b6000602082840312156136915761369061224a565b5b600061369f84828501613666565b91505092915050565b7f4e487b7100000000000000000000000000000000000000000000000000000000600052601260045260246000fd5b7f4552433732313a206d696e7420746f20746865207a65726f2061646472657373600082015250565b600061370d60208361231a565b9150613718826136d7565b602082019050919050565b6000602082019050818103600083015261373c81613700565b9050919050565b7f4552433732313a20746f6b656e20616c7265616479206d696e74656400000000600082015250565b6000613779601c8361231a565b915061378482613743565b602082019050919050565b600060208201905081810360008301526137a88161376c565b905091905056fea2646970667358221220724964b798ccd609fe08a3769be1c45fd435d9f9317daf0af9e1ed24d1e12b3c64736f6c634300081c0033",
  "linkReferences": {},
  "deployedLinkReferences": {}
}