{"address":"0xDc64a140Aa3E981100a9becA4E685f962f0cF6C9","bytecode":"0x608060405234801561001057600080fd5b506040518060400160405280600f81526020017f476f76436861696e205065726d697400000000000000000000000000000000008152506040518060400160405280600381526020017f4743500000000000000000000000000000000000000000000000000000000000815250816000908161008c91906103de565b50806001908161009c91906103de565b5050506100bb6100b06100c060201b60201c565b6100c860201b60201c565b6104b0565b600033905090565b6000600760009054906101000a900473ffffffffffffffffffffffffffffffffffffffff16905081600760006101000a81548173ffffffffffffffffffffffffffffffffffffffff021916908373ffffffffffffffffffffffffffffffffffffffff1602179055508173ffffffffffffffffffffffffffffffffffffffff168173ffffffffffffffffffffffffffffffffffffffff167f8be0079c531659141344cd1fd0a4f28419497f9722a3daafe3b4186f6b6457e060405160405180910390a35050565b600081519050919050565b7f4e487b7100000000000000000000000000000000000000000000000000000000600052604160045260246000fd5b7f4e487b7100000000000000000000000000000000000000000000000000000000600052602260045260246000fd5b6000600282049050600182168061020f57607f821691505b602082108103610222576102216101c8565b5b50919050565b60008190508160005260206000209050919050565b60006020601f8301049050919050565b600082821b905092915050565b60006008830261028a7fffffffffffffffffffffffffffffffffffffffffffffffffffffffffffffffff8261024d565b610294868361024d565b95508019841693508086168417925050509392505050565b6000819050919050565b6000819050919050565b60006102db6102d66102d1846102ac565b6102b6565b6102ac565b9050919050565b6000819050919050565b6102f5836102c0565b610309610301826102e2565b84845461025a565b825550505050565b600090565b61031e610311565b6103298184846102ec565b505050565b5b8181101561034d57610342600082610316565b60018101905061032f565b5050565b601f8211156103925761036381610228565b61036c8461023d565b8101602085101561037b578190505b61038f6103878561023d565b83018261032e565b50505b505050565b600082821c905092915050565b60006103b560001984600802610397565b1980831691505092915050565b60006103ce83836103a4565b9150826002028217905092915050565b6103e78261018e565b67ffffffffffffffff811115610400576103ff610199565b5b61040a82546101f7565b610415828285610351565b600060209050601f8311600181146104485760008415610436578287015190505b61044085826103c2565b8655506104a8565b601f19841661045686610228565b60005b8281101561047e57848901518255600182019150602085019450602081019050610459565b8683101561049b5784890151610497601f8916826103a4565b8355505b6001600288020188555050505b505050505050565b613633806104bf6000396000f3fe608060405234801561001057600080fd5b506004361061012c5760003560e01c80638da5cb5b116100ad578063c87b56dd11610071578063c87b56dd1461032f578063cf4ae3ae1461035f578063d863042c1461037b578063e985e9c5146103ab578063f2fde38b146103db5761012c565b80638da5cb5b1461029d57806395d89b41146102bb578063a22cb465146102d9578063a2309ff8146102f5578063b88d4fde146103135761012c565b806323b872dd116100f457806323b872dd146101fb57806342842e0e146102175780636352211e1461023357806370a0823114610263578063715018a6146102935761012c565b806301ffc9a71461013157806306fdde0314610161578063081812fc1461017f578063095ea7b3146101af5780630da610d8146101cb575b600080fd5b61014b600480360381019061014691906121c6565b6103f7565b604051610158919061220e565b60405180910390f35b610169610409565b60405161017691906122b9565b60405180910390f35b61019960048036038101906101949190612311565b61049b565b6040516101a6919061237f565b60405180910390f35b6101c960048036038101906101c491906123c6565b6104e1565b005b6101e560048036038101906101e09190612406565b6105f8565b6040516101f291906124f1565b60405180910390f35b61021560048036038101906102109190612513565b61079e565b005b610231600480360381019061022c9190612513565b6107fe565b005b61024d60048036038101906102489190612311565b61081e565b60405161025a919061237f565b60405180910390f35b61027d60048036038101906102789190612406565b6108a4565b60405161028a9190612575565b60405180910390f35b61029b61095b565b005b6102a561096f565b6040516102b2919061237f565b60405180910390f35b6102c3610999565b6040516102d091906122b9565b60405180910390f35b6102f360048036038101906102ee91906125bc565b610a2b565b005b6102fd610a41565b60405161030a9190612575565b60405180910390f35b61032d60048036038101906103289190612731565b610a52565b005b61034960048036038101906103449190612311565b610ab4565b60405161035691906122b9565b60405180910390f35b61037960048036038101906103749190612311565b610ac6565b005b61039560048036038101906103909190612855565b610b6a565b6040516103a29190612575565b60405180910390f35b6103c560048036038101906103c091906128b1565b610ba2565b6040516103d2919061220e565b60405180910390f35b6103f560048036038101906103f09190612406565b610c36565b005b600061040282610cb9565b9050919050565b60606000805461041890612920565b80601f016020809104026020016040519081016040528092919081815260200182805461044490612920565b80156104915780601f1061046657610100808354040283529160200191610491565b820191906000526020600020905b81548152906001019060200180831161047457829003601f168201915b5050505050905090565b60006104a682610d1a565b6004600083815260200190815260200160002060009054906101000a900473ffffffffffffffffffffffffffffffffffffffff169050919050565b60006104ec8261081e565b90508073ffffffffffffffffffffffffffffffffffffffff168373ffffffffffffffffffffffffffffffffffffffff160361055c576040517f08c379a0000000000000000000000000000000000000000000000000000000008152600401610553906129c3565b60405180910390fd5b8073ffffffffffffffffffffffffffffffffffffffff1661057b610d65565b73ffffffffffffffffffffffffffffffffffffffff1614806105aa57506105a9816105a4610d65565b610ba2565b5b6105e9576040517f08c379a00000000000000000000000000000000000000000000000000000000081526004016105e090612a55565b60405180910390fd5b6105f38383610d6d565b505050565b60606000610604610a41565b905060008167ffffffffffffffff81111561062257610621612606565b5b6040519080825280602002602001820160405280156106505781602001602082028036833780820191505090505b509050600080600190505b8381116106f15761066b81610e26565b80156106aa57508573ffffffffffffffffffffffffffffffffffffffff166106928261081e565b73ffffffffffffffffffffffffffffffffffffffff16145b156106de57808383815181106106c3576106c2612a75565b5b60200260200101818152505081806106da90612ad3565b9250505b80806106e990612ad3565b91505061065b565b5060008167ffffffffffffffff81111561070e5761070d612606565b5b60405190808252806020026020018201604052801561073c5781602001602082028036833780820191505090505b50905060005b828110156107915783818151811061075d5761075c612a75565b5b602002602001015182828151811061077857610777612a75565b5b6020026020010181815250508080600101915050610742565b5080945050505050919050565b6107af6107a9610d65565b82610e67565b6107ee576040517f08c379a00000000000000000000000000000000000000000000000000000000081526004016107e590612b8d565b60405180910390fd5b6107f9838383610efc565b505050565b61081983838360405180602001604052806000815250610a52565b505050565b60008061082a836111f5565b9050600073ffffffffffffffffffffffffffffffffffffffff168173ffffffffffffffffffffffffffffffffffffffff160361089b576040517f08c379a000000000000000000000000000000000000000000000000000000000815260040161089290612bf9565b60405180910390fd5b80915050919050565b60008073ffffffffffffffffffffffffffffffffffffffff168273ffffffffffffffffffffffffffffffffffffffff1603610914576040517f08c379a000000000000000000000000000000000000000000000000000000000815260040161090b90612c8b565b60405180910390fd5b600360008373ffffffffffffffffffffffffffffffffffffffff1673ffffffffffffffffffffffffffffffffffffffff168152602001908152602001600020549050919050565b610963611232565b61096d60006112b0565b565b6000600760009054906101000a900473ffffffffffffffffffffffffffffffffffffffff16905090565b6060600180546109a890612920565b80601f01602080910402602001604051908101604052809291908181526020018280546109d490612920565b8015610a215780601f106109f657610100808354040283529160200191610a21565b820191906000526020600020905b815481529060010190602001808311610a0457829003601f168201915b5050505050905090565b610a3d610a36610d65565b8383611376565b5050565b6000610a4d60086114e2565b905090565b610a63610a5d610d65565b83610e67565b610aa2576040517f08c379a0000000000000000000000000000000000000000000000000000000008152600401610a9990612b8d565b60405180910390fd5b610aae848484846114f0565b50505050565b6060610abf8261154c565b9050919050565b610acf81610e26565b610b0e576040517f08c379a0000000000000000000000000000000000000000000000000000000008152600401610b0590612cf7565b60405180910390fd5b610b1f610b19610d65565b82610e67565b610b5e576040517f08c379a0000000000000000000000000000000000000000000000000000000008152600401610b5590612d63565b60405180910390fd5b610b678161165e565b50565b6000610b76600861166a565b6000610b8260086114e2565b9050610b8e8482611680565b610b98818461169e565b8091505092915050565b6000600560008473ffffffffffffffffffffffffffffffffffffffff1673ffffffffffffffffffffffffffffffffffffffff16815260200190815260200160002060008373ffffffffffffffffffffffffffffffffffffffff1673ffffffffffffffffffffffffffffffffffffffff16815260200190815260200160002060009054906101000a900460ff16905092915050565b610c3e611232565b600073ffffffffffffffffffffffffffffffffffffffff168173ffffffffffffffffffffffffffffffffffffffff1603610cad576040517f08c379a0000000000000000000000000000000000000000000000000000000008152600401610ca490612df5565b60405180910390fd5b610cb6816112b0565b50565b6000634906490660e01b7bffffffffffffffffffffffffffffffffffffffffffffffffffffffff1916827bffffffffffffffffffffffffffffffffffffffffffffffffffffffff19161480610d135750610d1282611742565b5b9050919050565b610d2381610e26565b610d62576040517f08c379a0000000000000000000000000000000000000000000000000000000008152600401610d5990612bf9565b60405180910390fd5b50565b600033905090565b816004600083815260200190815260200160002060006101000a81548173ffffffffffffffffffffffffffffffffffffffff021916908373ffffffffffffffffffffffffffffffffffffffff160217905550808273ffffffffffffffffffffffffffffffffffffffff16610de08361081e565b73ffffffffffffffffffffffffffffffffffffffff167f8c5be1e5ebec7d5bd14f71427d1e84f3dd0314c0f7b2291e5b200ac8c7c3b92560405160405180910390a45050565b60008073ffffffffffffffffffffffffffffffffffffffff16610e48836111f5565b73ffffffffffffffffffffffffffffffffffffffff1614159050919050565b600080610e738361081e565b90508073ffffffffffffffffffffffffffffffffffffffff168473ffffffffffffffffffffffffffffffffffffffff161480610eb55750610eb48185610ba2565b5b80610ef357508373ffffffffffffffffffffffffffffffffffffffff16610edb8461049b565b73ffffffffffffffffffffffffffffffffffffffff16145b91505092915050565b8273ffffffffffffffffffffffffffffffffffffffff16610f1c8261081e565b73ffffffffffffffffffffffffffffffffffffffff1614610f72576040517f08c379a0000000000000000000000000000000000000000000000000000000008152600401610f6990612e87565b60405180910390fd5b600073ffffffffffffffffffffffffffffffffffffffff168273ffffffffffffffffffffffffffffffffffffffff1603610fe1576040517f08c379a0000000000000000000000000000000000000000000000000000000008152600401610fd890612f19565b60405180910390fd5b610fee8383836001611824565b8273ffffffffffffffffffffffffffffffffffffffff1661100e8261081e565b73ffffffffffffffffffffffffffffffffffffffff1614611064576040517f08c379a000000000000000000000000000000000000000000000000000000000815260040161105b90612e87565b60405180910390fd5b6004600082815260200190815260200160002060006101000a81549073ffffffffffffffffffffffffffffffffffffffff02191690556001600360008573ffffffffffffffffffffffffffffffffffffffff1673ffffffffffffffffffffffffffffffffffffffff168152602001908152602001600020600082825403925050819055506001600360008473ffffffffffffffffffffffffffffffffffffffff1673ffffffffffffffffffffffffffffffffffffffff16815260200190815260200160002060008282540192505081905550816002600083815260200190815260200160002060006101000a81548173ffffffffffffffffffffffffffffffffffffffff021916908373ffffffffffffffffffffffffffffffffffffffff160217905550808273ffffffffffffffffffffffffffffffffffffffff168473ffffffffffffffffffffffffffffffffffffffff167fddf252ad1be2c89b69c2b068fc378daa952ba7f163c4a11628f55a4df523b3ef60405160405180910390a46111f0838383600161182a565b505050565b60006002600083815260200190815260200160002060009054906101000a900473ffffffffffffffffffffffffffffffffffffffff169050919050565b61123a610d65565b73ffffffffffffffffffffffffffffffffffffffff1661125861096f565b73ffffffffffffffffffffffffffffffffffffffff16146112ae576040517f08c379a00000000000000000000000000000000000000000000000000000000081526004016112a590612f85565b60405180910390fd5b565b6000600760009054906101000a900473ffffffffffffffffffffffffffffffffffffffff16905081600760006101000a81548173ffffffffffffffffffffffffffffffffffffffff021916908373ffffffffffffffffffffffffffffffffffffffff1602179055508173ffffffffffffffffffffffffffffffffffffffff168173ffffffffffffffffffffffffffffffffffffffff167f8be0079c531659141344cd1fd0a4f28419497f9722a3daafe3b4186f6b6457e060405160405180910390a35050565b8173ffffffffffffffffffffffffffffffffffffffff168373ffffffffffffffffffffffffffffffffffffffff16036113e4576040517f08c379a00000000000000000000000000000000000000000000000000000000081526004016113db90612ff1565b60405180910390fd5b80600560008573ffffffffffffffffffffffffffffffffffffffff1673ffffffffffffffffffffffffffffffffffffffff16815260200190815260200160002060008473ffffffffffffffffffffffffffffffffffffffff1673ffffffffffffffffffffffffffffffffffffffff16815260200190815260200160002060006101000a81548160ff0219169083151502179055508173ffffffffffffffffffffffffffffffffffffffff168373ffffffffffffffffffffffffffffffffffffffff167f17307eab39ab6107e8899845ad3d59bd9653f200f220920489ca2b5937696c31836040516114d5919061220e565b60405180910390a3505050565b600081600001549050919050565b6114fb848484610efc565b61150784848484611830565b611546576040517f08c379a000000000000000000000000000000000000000000000000000000000815260040161153d90613083565b60405180910390fd5b50505050565b606061155782610d1a565b600060066000848152602001908152602001600020805461157790612920565b80601f01602080910402602001604051908101604052809291908181526020018280546115a390612920565b80156115f05780601f106115c5576101008083540402835291602001916115f0565b820191906000526020600020905b8154815290600101906020018083116115d357829003601f168201915b5050505050905060006116016119b7565b90506000815103611616578192505050611659565b60008251111561164b5780826040516020016116339291906130df565b60405160208183030381529060405292505050611659565b611654846119ce565b925050505b919050565b61166781611a36565b50565b6001816000016000828254019250508190555050565b61169a828260405180602001604052806000815250611a89565b5050565b6116a782610e26565b6116e6576040517f08c379a00000000000000000000000000000000000000000000000000000000081526004016116dd90613175565b60405180910390fd5b806006600084815260200190815260200160002090816117069190613341565b507ff8e1a15aba9398e019f0b49df1a4fde98ee17ae345cb5f6b5e2c27f5033e8ce7826040516117369190612575565b60405180910390a15050565b60007f80ac58cd000000000000000000000000000000000000000000000000000000007bffffffffffffffffffffffffffffffffffffffffffffffffffffffff1916827bffffffffffffffffffffffffffffffffffffffffffffffffffffffff1916148061180d57507f5b5e139f000000000000000000000000000000000000000000000000000000007bffffffffffffffffffffffffffffffffffffffffffffffffffffffff1916827bffffffffffffffffffffffffffffffffffffffffffffffffffffffff1916145b8061181d575061181c82611ae4565b5b9050919050565b50505050565b50505050565b60006118518473ffffffffffffffffffffffffffffffffffffffff16611b4e565b156119aa578373ffffffffffffffffffffffffffffffffffffffff1663150b7a0261187a610d65565b8786866040518563ffffffff1660e01b815260040161189c9493929190613468565b6020604051808303816000875af19250505080156118d857506040513d601f19601f820116820180604052508101906118d591906134c9565b60015b61195a573d8060008114611908576040519150601f19603f3d011682016040523d82523d6000602084013e61190d565b606091505b506000815103611952576040517f08c379a000000000000000000000000000000000000000000000000000000000815260040161194990613083565b60405180910390fd5b805181602001fd5b63150b7a0260e01b7bffffffffffffffffffffffffffffffffffffffffffffffffffffffff1916817bffffffffffffffffffffffffffffffffffffffffffffffffffffffff1916149150506119af565b600190505b949350505050565b606060405180602001604052806000815250905090565b60606119d982610d1a565b60006119e36119b7565b90506000815111611a035760405180602001604052806000815250611a2e565b80611a0d84611b71565b604051602001611a1e9291906130df565b6040516020818303038152906040525b915050919050565b611a3f81611c3f565b6000600660008381526020019081526020016000208054611a5f90612920565b905014611a8657600660008281526020019081526020016000206000611a8591906120fd565b5b50565b611a938383611d8d565b611aa06000848484611830565b611adf576040517f08c379a0000000000000000000000000000000000000000000000000000000008152600401611ad690613083565b60405180910390fd5b505050565b60007f01ffc9a7000000000000000000000000000000000000000000000000000000007bffffffffffffffffffffffffffffffffffffffffffffffffffffffff1916827bffffffffffffffffffffffffffffffffffffffffffffffffffffffff1916149050919050565b6000808273ffffffffffffffffffffffffffffffffffffffff163b119050919050565b606060006001611b8084611faa565b01905060008167ffffffffffffffff811115611b9f57611b9e612606565b5b6040519080825280601f01601f191660200182016040528015611bd15781602001600182028036833780820191505090505b509050600082602001820190505b600115611c34578080600190039150507f3031323334353637383961626364656600000000000000000000000000000000600a86061a8153600a8581611c2857611c276134f6565b5b04945060008503611bdf575b819350505050919050565b6000611c4a8261081e565b9050611c5a816000846001611824565b611c638261081e565b90506004600083815260200190815260200160002060006101000a81549073ffffffffffffffffffffffffffffffffffffffff02191690556001600360008373ffffffffffffffffffffffffffffffffffffffff1673ffffffffffffffffffffffffffffffffffffffff168152602001908152602001600020600082825403925050819055506002600083815260200190815260200160002060006101000a81549073ffffffffffffffffffffffffffffffffffffffff021916905581600073ffffffffffffffffffffffffffffffffffffffff168273ffffffffffffffffffffffffffffffffffffffff167fddf252ad1be2c89b69c2b068fc378daa952ba7f163c4a11628f55a4df523b3ef60405160405180910390a4611d8981600084600161182a565b5050565b600073ffffffffffffffffffffffffffffffffffffffff168273ffffffffffffffffffffffffffffffffffffffff1603611dfc576040517f08c379a0000000000000000000000000000000000000000000000000000000008152600401611df390613571565b60405180910390fd5b611e0581610e26565b15611e45576040517f08c379a0000000000000000000000000000000000000000000000000000000008152600401611e3c906135dd565b60405180910390fd5b611e53600083836001611824565b611e5c81610e26565b15611e9c576040517f08c379a0000000000000000000000000000000000000000000000000000000008152600401611e93906135dd565b60405180910390fd5b6001600360008473ffffffffffffffffffffffffffffffffffffffff1673ffffffffffffffffffffffffffffffffffffffff16815260200190815260200160002060008282540192505081905550816002600083815260200190815260200160002060006101000a81548173ffffffffffffffffffffffffffffffffffffffff021916908373ffffffffffffffffffffffffffffffffffffffff160217905550808273ffffffffffffffffffffffffffffffffffffffff16600073ffffffffffffffffffffffffffffffffffffffff167fddf252ad1be2c89b69c2b068fc378daa952ba7f163c4a11628f55a4df523b3ef60405160405180910390a4611fa660008383600161182a565b5050565b600080600090507a184f03e93ff9f4daa797ed6e38ed64bf6a1f0100000000000000008310612008577a184f03e93ff9f4daa797ed6e38ed64bf6a1f0100000000000000008381611ffe57611ffd6134f6565b5b0492506040810190505b6d04ee2d6d415b85acef81000000008310612045576d04ee2d6d415b85acef8100000000838161203b5761203a6134f6565b5b0492506020810190505b662386f26fc10000831061207457662386f26fc10000838161206a576120696134f6565b5b0492506010810190505b6305f5e100831061209d576305f5e1008381612093576120926134f6565b5b0492506008810190505b61271083106120c25761271083816120b8576120b76134f6565b5b0492506004810190505b606483106120e557606483816120db576120da6134f6565b5b0492506002810190505b600a83106120f4576001810190505b80915050919050565b50805461210990612920565b6000825580601f1061211b575061213a565b601f016020900490600052602060002090810190612139919061213d565b5b50565b5b8082111561215657600081600090555060010161213e565b5090565b6000604051905090565b600080fd5b600080fd5b60007fffffffff0000000000000000000000000000000000000000000000000000000082169050919050565b6121a38161216e565b81146121ae57600080fd5b50565b6000813590506121c08161219a565b92915050565b6000602082840312156121dc576121db612164565b5b60006121ea848285016121b1565b91505092915050565b60008115159050919050565b612208816121f3565b82525050565b600060208201905061222360008301846121ff565b92915050565b600081519050919050565b600082825260208201905092915050565b60005b83811015612263578082015181840152602081019050612248565b60008484015250505050565b6000601f19601f8301169050919050565b600061228b82612229565b6122958185612234565b93506122a5818560208601612245565b6122ae8161226f565b840191505092915050565b600060208201905081810360008301526122d38184612280565b905092915050565b6000819050919050565b6122ee816122db565b81146122f957600080fd5b50565b60008135905061230b816122e5565b92915050565b60006020828403121561232757612326612164565b5b6000612335848285016122fc565b91505092915050565b600073ffffffffffffffffffffffffffffffffffffffff82169050919050565b60006123698261233e565b9050919050565b6123798161235e565b82525050565b60006020820190506123946000830184612370565b92915050565b6123a38161235e565b81146123ae57600080fd5b50565b6000813590506123c08161239a565b92915050565b600080604083850312156123dd576123dc612164565b5b60006123eb858286016123b1565b92505060206123fc858286016122fc565b9150509250929050565b60006020828403121561241c5761241b612164565b5b600061242a848285016123b1565b91505092915050565b600081519050919050565b600082825260208201905092915050565b6000819050602082019050919050565b612468816122db565b82525050565b600061247a838361245f565b60208301905092915050565b6000602082019050919050565b600061249e82612433565b6124a8818561243e565b93506124b38361244f565b8060005b838110156124e45781516124cb888261246e565b97506124d683612486565b9250506001810190506124b7565b5085935050505092915050565b6000602082019050818103600083015261250b8184612493565b905092915050565b60008060006060848603121561252c5761252b612164565b5b600061253a868287016123b1565b935050602061254b868287016123b1565b925050604061255c868287016122fc565b9150509250925092565b61256f816122db565b82525050565b600060208201905061258a6000830184612566565b92915050565b612599816121f3565b81146125a457600080fd5b50565b6000813590506125b681612590565b92915050565b600080604083850312156125d3576125d2612164565b5b60006125e1858286016123b1565b92505060206125f2858286016125a7565b9150509250929050565b600080fd5b600080fd5b7f4e487b7100000000000000000000000000000000000000000000000000000000600052604160045260246000fd5b61263e8261226f565b810181811067ffffffffffffffff8211171561265d5761265c612606565b5b80604052505050565b600061267061215a565b905061267c8282612635565b919050565b600067ffffffffffffffff82111561269c5761269b612606565b5b6126a58261226f565b9050602081019050919050565b82818337600083830152505050565b60006126d46126cf84612681565b612666565b9050828152602081018484840111156126f0576126ef612601565b5b6126fb8482856126b2565b509392505050565b600082601f830112612718576127176125fc565b5b81356127288482602086016126c1565b91505092915050565b6000806000806080858703121561274b5761274a612164565b5b6000612759878288016123b1565b945050602061276a878288016123b1565b935050604061277b878288016122fc565b925050606085013567ffffffffffffffff81111561279c5761279b612169565b5b6127a887828801612703565b91505092959194509250565b600067ffffffffffffffff8211156127cf576127ce612606565b5b6127d88261226f565b9050602081019050919050565b60006127f86127f3846127b4565b612666565b90508281526020810184848401111561281457612813612601565b5b61281f8482856126b2565b509392505050565b600082601f83011261283c5761283b6125fc565b5b813561284c8482602086016127e5565b91505092915050565b6000806040838503121561286c5761286b612164565b5b600061287a858286016123b1565b925050602083013567ffffffffffffffff81111561289b5761289a612169565b5b6128a785828601612827565b9150509250929050565b600080604083850312156128c8576128c7612164565b5b60006128d6858286016123b1565b92505060206128e7858286016123b1565b9150509250929050565b7f4e487b7100000000000000000000000000000000000000000000000000000000600052602260045260246000fd5b6000600282049050600182168061293857607f821691505b60208210810361294b5761294a6128f1565b5b50919050565b7f4552433732313a20617070726f76616c20746f2063757272656e74206f776e6560008201527f7200000000000000000000000000000000000000000000000000000000000000602082015250565b60006129ad602183612234565b91506129b882612951565b604082019050919050565b600060208201905081810360008301526129dc816129a0565b9050919050565b7f4552433732313a20617070726f76652063616c6c6572206973206e6f7420746f60008201527f6b656e206f776e6572206f7220617070726f76656420666f7220616c6c000000602082015250565b6000612a3f603d83612234565b9150612a4a826129e3565b604082019050919050565b60006020820190508181036000830152612a6e81612a32565b9050919050565b7f4e487b7100000000000000000000000000000000000000000000000000000000600052603260045260246000fd5b7f4e487b7100000000000000000000000000000000000000000000000000000000600052601160045260246000fd5b6000612ade826122db565b91507fffffffffffffffffffffffffffffffffffffffffffffffffffffffffffffffff8203612b1057612b0f612aa4565b5b600182019050919050565b7f4552433732313a2063616c6c6572206973206e6f7420746f6b656e206f776e6560008201527f72206f7220617070726f76656400000000000000000000000000000000000000602082015250565b6000612b77602d83612234565b9150612b8282612b1b565b604082019050919050565b60006020820190508181036000830152612ba681612b6a565b9050919050565b7f4552433732313a20696e76616c696420746f6b656e2049440000000000000000600082015250565b6000612be3601883612234565b9150612bee82612bad565b602082019050919050565b60006020820190508181036000830152612c1281612bd6565b9050919050565b7f4552433732313a2061646472657373207a65726f206973206e6f74206120766160008201527f6c6964206f776e65720000000000000000000000000000000000000000000000602082015250565b6000612c75602983612234565b9150612c8082612c19565b604082019050919050565b60006020820190508181036000830152612ca481612c68565b9050919050565b7f546f6b656e20746964616b20646974656d756b616e0000000000000000000000600082015250565b6000612ce1601583612234565b9150612cec82612cab565b602082019050919050565b60006020820190508181036000830152612d1081612cd4565b9050919050565b7f42756b616e2070656d696c696b2061746175206469736574756a756900000000600082015250565b6000612d4d601c83612234565b9150612d5882612d17565b602082019050919050565b60006020820190508181036000830152612d7c81612d40565b9050919050565b7f4f776e61626c653a206e6577206f776e657220697320746865207a65726f206160008201527f6464726573730000000000000000000000000000000000000000000000000000602082015250565b6000612ddf602683612234565b9150612dea82612d83565b604082019050919050565b60006020820190508181036000830152612e0e81612dd2565b9050919050565b7f4552433732313a207472616e736665722066726f6d20696e636f72726563742060008201527f6f776e6572000000000000000000000000000000000000000000000000000000602082015250565b6000612e71602583612234565b9150612e7c82612e15565b604082019050919050565b60006020820190508181036000830152612ea081612e64565b9050919050565b7f4552433732313a207472616e7366657220746f20746865207a65726f2061646460008201527f7265737300000000000000000000000000000000000000000000000000000000602082015250565b6000612f03602483612234565b9150612f0e82612ea7565b604082019050919050565b60006020820190508181036000830152612f3281612ef6565b9050919050565b7f4f776e61626c653a2063616c6c6572206973206e6f7420746865206f776e6572600082015250565b6000612f6f602083612234565b9150612f7a82612f39565b602082019050919050565b60006020820190508181036000830152612f9e81612f62565b9050919050565b7f4552433732313a20617070726f766520746f2063616c6c657200000000000000600082015250565b6000612fdb601983612234565b9150612fe682612fa5565b602082019050919050565b6000602082019050818103600083015261300a81612fce565b9050919050565b7f4552433732313a207472616e7366657220746f206e6f6e20455243373231526560008201527f63656976657220696d706c656d656e7465720000000000000000000000000000602082015250565b600061306d603283612234565b915061307882613011565b604082019050919050565b6000602082019050818103600083015261309c81613060565b9050919050565b600081905092915050565b60006130b982612229565b6130c381856130a3565b93506130d3818560208601612245565b80840191505092915050565b60006130eb82856130ae565b91506130f782846130ae565b91508190509392505050565b7f45524337323155524953746f726167653a2055524920736574206f66206e6f6e60008201527f6578697374656e7420746f6b656e000000000000000000000000000000000000602082015250565b600061315f602e83612234565b915061316a82613103565b604082019050919050565b6000602082019050818103600083015261318e81613152565b9050919050565b60008190508160005260206000209050919050565b60006020601f8301049050919050565b600082821b905092915050565b6000600883026131f77fffffffffffffffffffffffffffffffffffffffffffffffffffffffffffffffff826131ba565b61320186836131ba565b95508019841693508086168417925050509392505050565b6000819050919050565b600061323e613239613234846122db565b613219565b6122db565b9050919050565b6000819050919050565b61325883613223565b61326c61326482613245565b8484546131c7565b825550505050565b600090565b613281613274565b61328c81848461324f565b505050565b5b818110156132b0576132a5600082613279565b600181019050613292565b5050565b601f8211156132f5576132c681613195565b6132cf846131aa565b810160208510156132de578190505b6132f26132ea856131aa565b830182613291565b50505b505050565b600082821c905092915050565b6000613318600019846008026132fa565b1980831691505092915050565b60006133318383613307565b9150826002028217905092915050565b61334a82612229565b67ffffffffffffffff81111561336357613362612606565b5b61336d8254612920565b6133788282856132b4565b600060209050601f8311600181146133ab5760008415613399578287015190505b6133a38582613325565b86555061340b565b601f1984166133b986613195565b60005b828110156133e1578489015182556001820191506020850194506020810190506133bc565b868310156133fe57848901516133fa601f891682613307565b8355505b6001600288020188555050505b505050505050565b600081519050919050565b600082825260208201905092915050565b600061343a82613413565b613444818561341e565b9350613454818560208601612245565b61345d8161226f565b840191505092915050565b600060808201905061347d6000830187612370565b61348a6020830186612370565b6134976040830185612566565b81810360608301526134a9818461342f565b905095945050505050565b6000815190506134c38161219a565b92915050565b6000602082840312156134df576134de612164565b5b60006134ed848285016134b4565b91505092915050565b7f4e487b7100000000000000000000000000000000000000000000000000000000600052601260045260246000fd5b7f4552433732313a206d696e7420746f20746865207a65726f2061646472657373600082015250565b600061355b602083612234565b915061356682613525565b602082019050919050565b6000602082019050818103600083015261358a8161354e565b9050919050565b7f4552433732313a20746f6b656e20616c7265616479206d696e74656400000000600082015250565b60006135c7601c83612234565b91506135d282613591565b602082019050919050565b600060208201905081810360008301526135f6816135ba565b905091905056fea2646970667358221220d99da510f08abea7ffca5d03382e02c259315dcd71ee6749d0c6ef60f533765b64736f6c634300081c0033","abi":[{"inputs":[],"stateMutability":"nonpayable","type":"constructor"},{"anonymous":false,"inputs":[{"indexed":true,"internalType":"address","name":"owner","type":"address"},{"indexed":true,"internalType":"address","name":"approved","type":"address"},{"indexed":true,"internalType":"uint256","name":"tokenId","type":"uint256"}],"name":"Approval","type":"event"},{"anonymous":false,"inputs":[{"indexed":true,"internalType":"address","name":"owner","type":"address"},{"indexed":true,"internalType":"address","name":"operator","type":"address"},{"indexed":false,"internalType":"bool","name":"approved","type":"bool"}],"name":"ApprovalForAll","type":"event"},{"anonymous":false,"inputs":[{"indexed":false,"internalType":"uint256","name":"_fromTokenId","type":"uint256"},{"indexed":false,"internalType":"uint256","name":"_toTokenId","type":"uint256"}],"name":"BatchMetadataUpdate","type":"event"},{"anonymous":false,"inputs":[{"indexed":false,"internalType":"uint256","name":"_tokenId","type":"uint256"}],"name":"MetadataUpdate","type":"event"},{"anonymous":false,"inputs":[{"indexed":true,"internalType":"address","name":"previousOwner","type":"address"},{"indexed":true,"internalType":"address","name":"newOwner","type":"address"}],"name":"OwnershipTransferred","type":"event"},{"anonymous":false,"inputs":[{"indexed":true,"internalType":"address","name":"from","type":"address"},{"indexed":true,"internalType":"address","name":"to","type":"address"},{"indexed":true,"internalType":"uint256","name":"tokenId","type":"uint256"}],"name":"Transfer","type":"event"},{"inputs":[{"internalType":"address","name":"to","type":"address"},{"internalType":"uint256","name":"tokenId","type":"uint256"}],"name":"approve","outputs":[],"stateMutability":"nonpayable","type":"function"},{"inputs":[{"internalType":"address","name":"owner","type":"address"}],"name":"balanceOf","outputs":[{"internalType":"uint256","name":"","type":"uint256"}],"stateMutability":"view","type":"function"},{"inputs":[{"internalType":"uint256","name":"tokenId","type":"uint256"}],"name":"burnPermit","outputs":[],"stateMutability":"nonpayable","type":"function"},{"inputs":[{"internalType":"uint256","name":"tokenId","type":"uint256"}],"name":"getApproved","outputs":[{"internalType":"address","name":"","type":"address"}],"stateMutability":"view","type":"function"},{"inputs":[{"internalType":"address","name":"owner","type":"address"},{"internalType":"address","name":"operator","type":"address"}],"name":"isApprovedForAll","outputs":[{"internalType":"bool","name":"","type":"bool"}],"stateMutability":"view","type":"function"},{"inputs":[{"internalType":"address","name":"to","type":"address"},{"internalType":"string","name":"uri","type":"string"}],"name":"mintPermit","outputs":[{"internalType":"uint256","name":"","type":"uint256"}],"stateMutability":"nonpayable","type":"function"},{"inputs":[],"name":"name","outputs":[{"internalType":"string","name":"","type":"string"}],"stateMutability":"view","type":"function"},{"inputs":[],"name":"owner","outputs":[{"internalType":"address","name":"","type":"address"}],"stateMutability":"view","type":"function"},{"inputs":[{"internalType":"uint256","name":"tokenId","type":"uint256"}],"name":"ownerOf","outputs":[{"internalType":"address","name":"","type":"address"}],"stateMutability":"view","type":"function"},{"inputs":[{"internalType":"address","name":"owner","type":"address"}],"name":"permitsOf","outputs":[{"internalType":"uint256[]","name":"","type":"uint256[]"}],"stateMutability":"view","type":"function"},{"inputs":[],"name":"renounceOwnership","outputs":[],"stateMutability":"nonpayable","type":"function"},{"inputs":[{"internalType":"address","name":"from","type":"address"},{"internalType":"address","name":"to","type":"address"},{"internalType":"uint256","name":"tokenId","type":"uint256"}],"name":"safeTransferFrom","outputs":[],"stateMutability":"nonpayable","type":"function"},{"inputs":[{"internalType":"address","name":"from","type":"address"},{"internalType":"address","name":"to","type":"address"},{"internalType":"uint256","name":"tokenId","type":"uint256"},{"internalType":"bytes","name":"data","type":"bytes"}],"name":"safeTransferFrom","outputs":[],"stateMutability":"nonpayable","type":"function"},{"inputs":[{"internalType":"address","name":"operator","type":"address"},{"internalType":"bool","name":"approved","type":"bool"}],"name":"setApprovalForAll","outputs":[],"stateMutability":"nonpayable","type":"function"},{"inputs":[{"internalType":"bytes4","name":"interfaceId","type":"bytes4"}],"name":"supportsInterface","outputs":[{"internalType":"bool","name":"","type":"bool"}],"stateMutability":"view","type":"function"},{"inputs":[],"name":"symbol","outputs":[{"internalType":"string","name":"","type":"string"}],"stateMutability":"view","type":"function"},{"inputs":[{"internalType":"uint256","name":"tokenId","type":"uint256"}],"name":"tokenURI","outputs":[{"internalType":"string","name":"","type":"string"}],"stateMutability":"view","type":"function"},{"inputs":[],"name":"totalMinted","outputs":[{"internalType":"uint256","name":"","type":"uint256"}],"stateMutability":"view","type":"function"},{"inputs":[{"internalType":"address","name":"from","type":"address"},{"internalType":"address","name":"to","type":"address"},{"internalType":"uint256","name":"tokenId","type":"uint256"}],"name":"transferFrom","outputs":[],"stateMutability":"nonpayable","type":"function"},{"inputs":[{"internalType":"address","name":"newOwner","type":"address"}],"name":"transferOwnership","outputs":[],"stateMutability":"nonpayable","type":"function"}]}